:020000040800F2
:10000000D0070020A10100086B1D0008DD1A0008C0
:10001000691D00087D060008B129000800000000E5
:10002000000000000000000000000000392100086E
:100030007F060008000000006D1D00080D23000869
:10004000BB010008BB010008BB010008BB010008A0
:10005000BB010008BB010008BB010008BB01000890
:10006000BB010008BB010008BB010008BB01000880
:10007000BB010008BB010008BB010008BB01000870
:10008000BB010008BB010008BB010008BB01000860
:10009000BB010008BB010008BB010008BB01000850
:1000A000BB010008BB010008BB010008BB01000840
:1000B000BB010008BB010008BB010008BB01000830
:1000C000BB010008BB010008BB010008BB01000820
:1000D000BB01000899290008BB010008A5290008F8
:1000E000BB010008BB010008BB010008BB01000800
:1000F000E9230008BB010008BB010008BB010008A0
:10010000BB010008BB010008BB010008BB010008DF
:10011000BB01000855250008BB010008BB01000811
:10012000BB010008BB010008BB010008BB010008BF
:10013000BB010008BB010008BB010008BB010008AF
:10014000BB010008BB010008BB010008BB0100089F
:10015000BB010008BB010008BB010008BB0100088F
:10016000BB010008BB010008BB010008BB0100087F
:10017000BB010008BB010008BB0100080000000033
:10018000BB010008BB010008DFF810D000F064FAE2
:1001900000480047F1290008AFF30080D007002095
:1001A0000648804706480047FEE7FEE7FEE7FEE711
:1001B000FEE7FEE7FEE7FEE7FEE7FEE79523000821
:1001C000890100082DE9F05F0546002092469B4614
:1001D00088460646814640241BE02846414647465D
:1001E000224600F083F953465A46C01A914110D373
:1001F00011461846224600F06AF92D1A67EB0108ED
:100200004F4622460120002100F061F917EB00095A
:100210004E41201EA4F10104DFDC484631462A4647
:100220004346BDE8F09FD2B201E000F8012B491E21
:10023000FBD270470022F6E710B513460A46044683
:100240001946FFF7F0FF204610BD2DE9FE4F80460E
:1002500081EA0300C00F0C46009021F0004123F01A
:100260000045B8EB0200A94105D240462146904620
:100270001C460B46024623F00040104347D0270D92
:10028000C7F30A00C3F30A510290401A01904028B4
:100290006BDAC3F3130040F4801B0098924620B140
:1002A0000023D2EB030A63EB0B0B01985946C0F114
:1002B0004002504600F00BF906460D46504659469E
:1002C000019A00F023F910EB08006141002487EA4D
:1002D000115284EAE7731A4340D0009A62B3019A3C
:1002E000012A4FEA075215DC001B61EB02014FF0B7
:1002F000004202EA0752CDE90042001C41F580119C
:1003000032462B4600F05AF903B0BDE8F08F404664
:100310002146F9E7001B61EB0201001C41F5801347
:1003200000185B412018A2F5001747EB030140EAD3
:10033000D570B6196D4111E06D084FEA360645EAF1
:10034000C0754FEA0752001B61EB0201001C41F52A
:10035000801149084FEA30000019514132462B46BE
:1003600003B0BDE8F04F00F01AB900980122400038
:100370000023D0EB020263EBE073009821464FEAC2
:10038000E074B8EB000061EB0401E9E783F000439F
:100390005BE781F0004158E72DE9FE4F81EA030455
:1003A00004F0004421F0004100944FF0000B23F0D2
:1003B000004350EA01045ED052EA03045BD0C3F369
:1003C0000A54C1F30A552C44A4F2F3340194A0FB5F
:1003D0000254C1F3130141F48011C3F3130343F436
:1003E000801301FB024400FB034E840A970A44EA8F
:1003F000815447EA8357A4FB076802958D0A05FBE1
:1004000007854FEA932C04FB0C542705029D4FEA05
:10041000065847EA1637B5EB08056EEB070C870E52
:10042000920E47EA811742EA8312A7FB0201B6EB5C
:100430000B0164EB00042B0D43EA0C335E1844EB14
:100440001C50DA465146E7FB0201C5F313044FEA9C
:100450000B3343EA14534FEA0432019C43EA060388
:10046000A4F10C040294009CCDE900B400F0A6F8BD
:1004700003B0BDE8F08F00200146F9E70EB540F269
:10048000334102910021CDE900110A460B4600F0EC
:1004900095F803B000BD01F0004330B421F00041F5
:1004A00050EA010206D00A0DA2F56072C1F31301F1
:1004B000002A02DC30BC00207047440F44EAC1042B
:1004C000C100E01830BC00EBC25000F031B8202A67
:1004D00004DB203A00FA02F1002070479140C2F19B
:1004E000200320FA03F3194390407047202A04DBCD
:1004F000203A21FA02F00021704721FA02F3D0409D
:10050000C2F120029140084319467047202A06DBB9
:10051000CB17203A41FA02F043EAE07306E041FAD1
:1005200002F3D040C2F120029140084319467047BF
:100530000029A8BF7047401C490008BF20F00100F7
:10054000704710B4B0FA80FC00FA0CF050EA0104D5
:1005500004BF10BC704749B1CCF1200421FA04F467
:1005600011FA0CF118BF012121430843A3EB0C0140
:10057000CB1D4FEA00614FEA102042BF002010BCA3
:10058000704700EBC35010440029A4BF10BC704753
:10059000401C490008BF20F0010010BC704710B596
:1005A000141E73F1000408DA401C41F10001921896
:1005B0005B411A4301D120F0010010BD2DE9F04D3F
:1005C00092469B4611B1B1FA81F202E0B0FA80F294
:1005D00020329046FFF77BFF04460F4640EA0A00B0
:1005E00041EA0B0153465A46084313D0114653EAD9
:1005F000010019D0C8F140025046FFF777FF0546C9
:100600000E46504659464246FFF761FF084305D063
:10061000012004E020463946BDE8F08D0020054366
:1006200046EAE0762C4337430A986305E40AA0EBD8
:1006300008000022FD0A44EA47540A3002D500208F
:100640000146E9E7010510196941DDE9084500198E
:100650006941BDE8F04DA2E7064C074D06E0E068B1
:1006600040F0010394E8070098471034AC42F6D3F9
:10067000FFF78EFD4C2A00086C2A0008FEE7704741
:1006800070470000002229B101291AD002291BD08D
:100690004FF440720E490B6823F440730B600B68F3
:1006A00013430B600A6822F0F8020A600A6802230A
:1006B00003EBC00002430A60086840F48030086021
:1006C00070474FF48072E5E74FF40072E2E70000F4
:1006D000103C02401348016889050FD5016821F4D8
:1006E00000710160016841F400610160016821F45A
:1006F00000610160016841F4007101600168490511
:100700000FD5016821F480610160016841F48051D6
:100710000160016821F480510160016841F4806149
:1007200001607047003C024008490A6822F44072A8
:100730000A600A6842F004020A600A684FF48033D3
:1007400043EA002002430A6070470000103C024068
:10075000064A136823F44073136013681360136828
:1007600043F001031360017070470000103C024029
:10077000084910B50C6824F440740C600C6844F40B
:1007800040740C600C6844F001040C60026043602B
:1007900010BD0000103C0240074A136823F4407368
:1007A0001360136843F480731360136843F001030C
:1007B0001360018070470000103C0240074A136834
:1007C00023F440731360136843F4007313601368D9
:1007D00043F001031360016070470000103C0240C9
:1007E00017490868C206174805D5C26942F01002C9
:1007F000C26110220A600A68920605D5C26942F0F9
:100800000802C26120220A600A68520605D5C26940
:1008100042F00402C26140220A600A68120605D54D
:10082000C26942F00202C26180220A600A6892072D
:1008300005D5C26942F02002C261022008607047FB
:100840000C3C0240AC03002070B511490446002066
:10085000C86100F04FFA06460E4D09E0601C07D053
:1008600024B100F047FA801BA04201D9032070BDDB
:100870002868C003F2D42868C00701D0012028608E
:10088000286810F0F200F2D0FFF7AAFF012070BD37
:10089000AC0300200C3C024030B501250022214968
:1008A00024280ED00B79D3B11E4B8C789B1D185584
:1008B000641CE4B28C70062C00D38A702C2803D000
:1008C0000DE00D718A70EFE70A718A705C78472C31
:1008D00005D19C784E2C02D15B794C2B20D04B79E2
:1008E000012B1CD1104BCC781855641CE0B2C87099
:1008F0001A2814D3CA704A710A7018783038092837
:100900000DD8587830280AD3392808D8002003F1A8
:100910001A011A5C0A54401CC0B21A28F9D330BD1F
:100920004D7130BD0200002040000020034901202D
:1009300002460870491C024801F01AB80200002063
:100940006C03002070B54FF47A75284600F034F837
:100950000E4E8021304600F0C3F9044607E08021A6
:10096000304600F0BDF90446642000F025F8002C64
:10097000F5D0074900200870284600F01DF8FFF761
:10098000D5FF2846BDE8704000F016B800100240C0
:100990000200002090F83510022903D08021416523
:1009A00001207047052180F835100068016821F0AA
:1009B000010101600020704770B5044600F09AF90B
:1009C0000546601C02D004480078044400F092F907
:1009D000401BA042FAD370BD340000202DE9F0473F
:1009E000044622480F46017E01290AD00121804693
:1009F00001764CF250394846FFF726FF020003D03B
:100A00002FE00220BDE8F0874FF0FF30386020680B
:100A1000174D012801D0A6681CE0207C6168FFF713
:100A200083FE4846FFF710FF0246286820F00400C6
:100A3000286014E0217C3046FFF724FE4846FFF78B
:100A400003FF0200286820F0FA00286001D03E6011
:100A500005E0761CD4E902100844B042EAD8FFF75A
:100A600039FE002188F818101046CBE7AC030020AF
:100A7000103C02400348016841F000410160002041
:100A800070470000103C02402DE9F0471B4E054620
:100A90001446307E1F468946012808D00120307652
:100AA0004CF250384046FFF7CFFE18B114E0022058
:100AB000BDE8F0879DB1012D16D0022D19D0224638
:100AC0003B464846FFF754FE4046FFF7BDFE0C4943
:100AD0000A6822F001020A6000213176E8E7E1B2FB
:100AE0004846FFF735FEEFE7A1B24846FFF754FE50
:100AF000EAE721464846FFF761FEE5E7AC03002040
:100B0000103C0240074900200A68002A09DA054A19
:100B1000054B0C3A1360054B13600968002900DA95
:100B200001207047103C024023016745AB89EFCD9F
:100B30002DE9F84FDFF87CB100224FF001084FF0AB
:100B4000030A4FF00F090BF1040E00BF0B6808FAFF
:100B500002F42340A3426ED14D68022D01D0122D24
:100B60000ED1D50800EB850CDCF820505607F70EA7
:100B700009FA07F6B5430E69BE402E43CCF8206053
:100B8000066855000F790AFA05FC07F0030726EA04
:100B90000C06AF40374307604E68012E05D0022E89
:100BA00003D0112E01D0122E0ED18668CF6826EA0E
:100BB0000C06AF40374387604668A6430C79C4F300
:100BC0000014944034434460C6688C6826EA0C06DE
:100BD000AC403443C4604C68E40065D5364C2568AD
:100BE00045F480452560246822F0030504F4804420
:100BF0000094324C2E19D6F8084895072F0F09FAA1
:100C000007F5AC432E4DA84201D1002524E02D4D1F
:100C1000A84201D101251FE02B4DA84201D1022598
:100C20001AE02A4DA84201D1032515E0284DA8421B
:100C300002D1042510E037E0264DA84201D1052558
:100C40000AE0254DA84201D1062505E0234DA84222
:100C500001D1072500E00825BD402543C6F8085806
:100C6000DBF800405D464E689C43F60300D51C430C
:100C70002C60DEF8004075464E689C43B60300D5F4
:100C80001C432C600B4D08352C684E689C43F602C3
:100C900000D51C432C60074D0C352C684E689C43D6
:100CA000B60200D51C432C60521C102AFFF44EAF34
:100CB000BDE8F88F003C014044380240003001405C
:100CC000000002400004024000080240000C024004
:100CD000001002400014024000180240001C0240B4
:100CE0000069084000D0012070470AB18161704757
:100CF0000904FBE7014880687047000034000020C9
:100D000002488168027811448160704734000020F5
:100D10000B4810B5016841F400710160016841F4AD
:100D200080610160016841F480710160032000F07E
:100D30006FF8002000F006F800F024F8002010BD45
:100D4000003C024070B50D4D04464FF47A7128788E
:100D5000B1FBF0F00A490968B1FBF0F000F0E0FAED
:100D600048B9102C07D200222146501E00F030F85E
:100D700000206C6070BD012070BD000034000020B8
:100D8000300000200A4808B5016841F48041016044
:100D9000006800F4804000900548001F016841F0A1
:100DA00080510160006800F08050009008BD000094
:100DB00044380240002809DB00F01F020121914065
:100DC0004009800000F1E020C0F8001170470000E9
:100DD000F0B40E4B1B680C46C3F30223C3F10705A6
:100DE000042D00D90425191D072901D2002300E094
:100DF000DB1E012606FA05F1491E214099409E405E
:100E0000761E16403143F0BC01F0D3BD0CED00E07E
:100E1000064900F0070208684FF6FF03184040EA51
:100E20000220034A10430860704700000CED00E008
:100E30000000FA052DE9F0470E46050065D0DFF801
:100E40001481D8F80000F7B200F00F00B04207D2CA
:100E500088F80070D8F8000000F00F00B04254D1BC
:100E600028683D4C810712D5400703D5206840F41F
:100E7000E05020602878000703D5206840F46040E7
:100E800020602068A96820F0F000084320602878DE
:100E9000C0072DD0304968680839012812D00228CF
:100EA00013D0032811D00968890700292DDA216899
:100EB00021F0030101432160FFF71CFF814641F24D
:100EC000883A0EE009688903EFE709688901ECE7D1
:100ED000FFF710FFA0EB0901514502D90320BDE83F
:100EE000F0872068696800F00C00B0EB810FEFD14B
:100EF000D8F80010404601F00F01B14207D9077041
:100F0000006800F00F00B04201D00120E7E7287828
:100F1000400705D52068E96820F4E05008432060C8
:100F20002878000706D52068296920F4604040EA47
:100F3000C100206000F036F82168084AC1F30311AF
:100F4000515CC840064908600020FFF7FBFE002006
:100F5000C5E70000003C024008380240322A000881
:100F6000300000200448054900680968044AC1F3BC
:100F70008221515CC8407047300000200838024090
:100F8000422A00080448054900680968044AC1F378
:100F90004231515CC84070473000002008380240A0
:100FA000422A0008154810B5006810F00C021448D9
:100FB00013D04110042A0FD0082A0ED10F4C241F41
:100FC0002268236802F03F025B0207D52068C0F365
:100FD0008810A0FB010106E0084610BD2168C1F39E
:100FE0008811A1FB00010023FFF7ECF82168C1F391
:100FF0000141491C4900B0FBF1F010BD0838024026
:101000000024F4002DE9F84F050076D02878DFF8A9
:10101000F8B2BE4CC00749D0DBF800105846C1F307
:101020008101012908D00068C0F3810002280AD19B
:10103000201D0068400206D52068800336D5686808
:101040000028E2D032E06868B0F5803F10D0B0F5FB
:10105000A02F206810D020F480302060206820F479
:10106000802020606868A0B1FFF744FE06460CE0CF
:10107000206840F48030F4E740F480202060F7E7F7
:10108000FFF738FE801B642873D820688003F7D5EB
:101090000CE0FFF72FFE064605E000BFFFF72AFE33
:1010A000801B6428F0D820688003F7D42878DFF804
:1010B000608280074FF000093ED5DBF800105846EB
:1010C00011F00C0F09D00068C0F3810002280BD189
:1010D0008D48001F0068400206D42068800715D59F
:1010E000E868012809D111E0E868B8B10120C8F822
:1010F0000000FFF7FFFD064605E002E1FFF7FAFDFD
:10110000801B0228C0D820688007F7D5206829698D
:1011100020F0F80040EAC10020600DE0C8F800901F
:10112000FFF7E8FD064604E0FFF7E4FD801B022818
:101130001FD820688007F7D42878000722D5724E80
:10114000744869696C3671B101210160FFF7D2FD05
:10115000074604E0FFF7CEFDC01B022809D830681F
:101160008007F7D50EE0C0F80090FFF7C3FD0746F3
:1011700005E083E0FFF7BEFDC01B02287ED8306883
:101180008007F7D42878400768D5DFF87CA10027CE
:101190000AF1380ADAF80000C0000BD4DAF80010BF
:1011A00041F08051CAF80010DAF80000012700F081
:1011B00080500090584E3068C00510D4306840F41C
:1011C00080703060FFF796FD009005E0FFF792FD1C
:1011D0000099401A022851D83068C005F6D54A4E09
:1011E000A868683601280FD00528306810D020F094
:1011F00001003060306820F004003060A868B8B1A9
:10120000FFF778FD00900FE0306840F00100F4E750
:1012100040F004003060F7E7FFF76CFD0099411AD9
:1012200041F28830814264D830688007F4D50EE0FE
:10123000FFF760FD009007E0FFF75CFD0099411AA1
:1012400041F28830814254D830688007F4D42FB1FD
:10125000DAF8001021F08051CAF80010A869C0B374
:10126000DBF80010C1F3810102294AD00228484668
:1012700007D0C8F86000FFF73DFD00E039E0054603
:101280003AE04746C8F86000FFF734FD064604E040
:10129000FFF730FD801B02282BD820688001F7D48F
:1012A000D5E907010843A96A1C4A490802EB014134
:1012B0006A6A41EA8211084395F82C1040EA0161FC
:1012C0001148001F016001203866FFF713FD054635
:1012D00005E014E0FFF70EFD401B022809D8206846
:1012E0008001F7D50BE000BFFFF704FD401B02288B
:1012F00002D90320BDE8F88F20688001F4D40020D3
:10130000F8E70120F6E70000083802400038024004
:1013100000004742800E4742007000400000FFFF7F
:1013200010B5401EB0F1807F01D3012010BD4FF0F9
:10133000E02460610F21601701F03BFB0020A061F9
:1013400007202061002010BD7047704710B50400D1
:1013500003D094F83D0010B107E0012010BD00203B
:1013600084F83C00204600F00DF8022084F83D008F
:10137000211D206801F03EF8012084F83D00002086
:1013800010BD000008B5114A01681148914211D101
:10139000016841F0800101600068002200F08000D7
:1013A000009003212C20FFF713FDBDE808402C20FE
:1013B000FFF700BD074A914207D1016841F48071EF
:1013C0000160006800F48070009008BD001C0040BF
:1013D00040380240002000400168CA6842F0010223
:1013E000CA600068816801F00701062903D001681E
:1013F00041F001010160002070470168CA6822F0D5
:101400000102CA600068016A41F21112114207D15B
:10141000016A9210114203D1016821F001010160BB
:1014200000207047704770B50446006801694FF0AE
:101430000005C943890715D4C168C943890711D478
:10144000E91E01610120207720688069800720461D
:1014500002D0FFF7E7FF04E000F098F8204600F024
:1014600096F8257720680169C943490717D4C168F0
:10147000C943490713D46FF00401016102202077AA
:101480002068806910F4407F204602D0FFF7CAFF31
:1014900004E000F07BF8204600F079F8257720681A
:1014A0000169C943090716D4C168C943090712D4A1
:1014B0006FF008010161042020772068C06980076F
:1014C000204602D0FFF7AEFF04E000F05FF82046B0
:1014D00000F05DF8257720680169C943C90617D473
:1014E000C168C943C90613D46FF010010161082017
:1014F00020772068C06910F4407F204602D0FFF7B3
:1015000091FF04E000F042F8204600F040F8257713
:1015100020680169C943C90708D1C168C943C9071F
:1015200004D1891E0161204600F032F8206801696B
:10153000C943090609D4C168C943090605D46FF037
:10154000800101612046FFF7FFFE20680169C94361
:10155000490609D4C168C943490605D46FF0400162
:101560000161204600F01EF820680169C943890620
:101570000BD4C168C943890607D46FF0200101610B
:101580002046BDE87040FFF7E0BE70BD7047704771
:10159000034900680968884201D100F08FBF704795
:1015A0002C0200207047704770B50268044610682E
:1015B000D168536910F00F0F50D003F0010501F40A
:1015C000907635435DD0C20705D0CA0503D5E26BDE
:1015D00042F00102E263420705D5DA0703D0E26B6D
:1015E00042F00202E263820705D5DA0703D0E26B1C
:1015F00042F00402E263020705D5DA0703D0E26B8A
:1016000042F00802E263E26B002A33D0800604D580
:10161000880602D5204600F0B9FF20684069E16BDA
:10162000C0F38010090700D428B3204600F0A0FFC3
:101630002068416949061AD5416921F0400141619C
:10164000606BA0B11B490165606BFFF7A3F900282F
:1016500010D0606B016DBDE870400847830610D55F
:101660008B060ED52046BDE8704000F08FBF2046A7
:10167000FFF799FF70BD2046FFF795FF0020E0635C
:1016800070BD030606D50B0604D52046BDE87040A4
:1016900001F01EB94006F3D54806F1D5D1682046C1
:1016A00021F04001D160202184F8391000F015FAB2
:1016B00070BD00006125000870B5040004D094F8E6
:1016C0003900002510B106E0012070BD84F83850C3
:1016D000204600F023F8242084F839002068C168EF
:1016E00021F40051C160204600F09CFF2068016990
:1016F00021F4904101612068416921F02A01416192
:101700002068C16841F40051C160E563202084F87D
:10171000390084F83A00002070BD00002DE9F04146
:1017200086B0044614216846FEF784FD5A49DFF866
:1017300064C12368584A103902240125032608276A
:101740005648DFF85C81634529D1136843F40023D0
:101750001360126802F4002205920A6842F0010246
:101760000A600A6802F0010205920A6842F0040267
:101770000A600968009401F00401CDE9047101AB2D
:10178000694683E87000FFF7D3F960028DE8F10045
:1017900069464046FFF7CCF906B0BDE8F081DFF8B6
:1017A00004C163452DD1106840F4801010601068AA
:1017B00000F480100590086840F004000860086894
:1017C00000F004000590086840F008000860086810
:1017D000694600F0080005904FF480508DE8F10054
:1017E0004046FFF7A5F904208DE8F10069462E4830
:1017F000FFF79EF9002204213520FFF7E9FA352092
:1018000023E0DFF8A8C00727634521D1224A121D33
:10181000136843F010031360126802F0100205927F
:101820000A6842F001020A60096801F001010591AD
:101830004FF4C0618DE8F2006946FFF779F90022A4
:1018400011462520FFF7C4FA2520FFF7B3FAA3E7D6
:1018500017488342A0D1106840F4802010601068BF
:1018600000F480200590086840F0020008600868D5
:10187000694600F0020005904FF440608DE8F100E9
:101880000C48FFF755F9002202212720FFF7A0FAA4
:101890002720DAE7004C00404038024000000240B8
:1018A0000008024000500040000C024000100140BF
:1018B00000480040000402402DE9F843044690F837
:1018C0003A00994616460D4620284FD195B18EB163
:1018D00094F83800012849D0012084F83800002706
:1018E000E763222084F83A00FFF704FAA6858046D1
:1018F000E68531E00120BDE8F883E08D401EE085FB
:10190000A0684346B0F5805F4FF000024FF0200121
:101910002046CDF8009004D001F00BF898B10320D8
:10192000E9E701F006F80028F9D1206900282068CD
:10193000406803D0C1B225F8011B0DE0C0F30801D7
:1019400025F8021B08E0206900282068406801D0C3
:1019500000F07F0005F8010BE08D0028CDD120209C
:1019600084F83A0084F838700020C4E70220C2E707
:1019700090F83A30202B22D1F9B1F2B190F83830FA
:10198000012B1CD081628285C2850021C163222285
:1019900080F83A2080F838100168CA6842F48072F2
:1019A000CA6001684A6942F001024A610068C16880
:1019B00041F02001C16000207047012070470220E3
:1019C0007047000070B51249044600680968114D5F
:1019D000884207D1012229460D48FFF7C9FF287820
:1019E00000F006FC0C492068096888420ED10B48BB
:1019F000007800280AD007490122491C0648FFF751
:101A0000B7FF6878BDE87040FEF746BF70BD0000C4
:101A10002C030020000000206C03002002000020A6
:101A20002DE9F843044690F839001F4616460D4646
:101A3000202850D1A5B19EB194F8380001284AD091
:101A4000012084F838004FF00008C4F83C802120C1
:101A500084F83900FFF74EF9A6848146E68426E033
:101A60000120BDE8F883E08C401EE084A0684B466E
:101A7000B0F5805F4FF000024FF0800120460097E4
:101A800003D000F056FFE8B90DE000F052FFC8B9EE
:101A900028882168C0F308004860206908B16D1CDF
:101AA00005E0AD1C03E0216815F8010B4860E08CEF
:101AB0000028D8D14B46002240212046009700F054
:101AC00038FF08B10320CCE7202084F8390084F8DF
:101AD00038800020C5E70220C3E77047FEE700001A
:101AE0002DE9F04186B014216846FEF7A3FB374884
:101AF0000024016841F010010160016801F010014B
:101B00000591016841F080010160016801F08001E8
:101B10000591016841F001010160016801F00101D6
:101B20000591016841F002010160016801F00201C4
:101B30000591016841F004010160016801F00401B0
:101B40000591016841F0080101600068204F00F034
:101B500008000590002233213846FFF7C6F8DFF869
:101B600074804FF44C56002231464046FFF7BDF8D2
:101B7000332000900125CDE901546946384603948D
:101B8000FEF7D6FF4FF68000CDE9000469463846DF
:101B90000294FEF7CDFF0096CDE901546946404618
:101BA0000394FEF7C5FF8020CDE900046946404656
:101BB0000294FEF7BDFF2020CDE9000469464046AF
:101BC0000294FEF7B5FF06B0BDE8F0813038024060
:101BD00000100240000402400B4810B509490160A2
:101BE00053214160002140F2E732C0E90212016155
:101BF0008161FFF7ABFB002803D0BDE81040FEF782
:101C00003FBD10BD001C00402C0200200B4810B549
:101C1000094901605321416000210122C0E90212FB
:101C200001618161FFF792FB002803D0BDE81040FD
:101C3000FEF726BD10BD0000002000406C02002011
:101C40000C4810B50A4901604FF4E13141600021B0
:101C500081600C22C160C0E904128161C161FFF79B
:101C60002BFD002803D0BDE81040FEF709BD10BDD4
:101C7000004C0040AC0200200C4810B50A4901603D
:101C80004FF416514160002181600C22C160C0E90F
:101C900004128161C161FFF70FFD002803D0BDE888
:101CA0001040FEF7EDBC10BD00500040EC020020DB
:101CB0000C4810B50A4901604FF4E1314160002140
:101CC00081600C22C160C0E904128161C161FFF72B
:101CD000F3FC002803D0BDE81040FEF7D1BC10BDD6
:101CE000001001402C0300200C4810B50A49016087
:101CF0004FF416514160002181600C22C160C0E99F
:101D000004128161C161FFF7D7FC002803D0BDE850
:101D10001040FEF7B5BC10BD004800406C03002029
:101D200070B5104D4FF4805631462846FEF7D8FF67
:101D3000044607E031462846FEF7D2FF04466420F9
:101D4000FEF73AFE002CF5D0FEF7F0FD00F0F6F9B4
:101D50004FF4FA70FEF730FE00F0BAFABDE87040BA
:101D600000F002BA00100240FEE770477047000022
:101D700008B506A1096800918DF8020000F010F87E
:101D80000421684600F0B4F808BD0000F0A000FF90
:101D9000002203210148FEF7A8BF00000010024006
:101DA00010B5012203210448FEF79FFFBDE8104053
:101DB0000120FEF701BE00000010024070B504468D
:101DC0002DED048B0078F0286CD1E07AFF2869D1E2
:101DD0000A20B1FBF0F2A378394DC3EBC3032B44C7
:101DE000303203F8072CB1FBF0F200FB1210A1789F
:101DF0003030C1EBC101294401F8060C607AFEF7CE
:101E00003DFB9FED301B53EC112BFEF7C5FA41EC67
:101E1000180B207AFEF732FB9FED2C1B53EC112B95
:101E2000FEF7BAFA41EC190BE079FEF727FB53EC09
:101E3000192BFEF70AFA53EC182BFEF706FAFEF7F9
:101E40002AFB0146A278A5F1A00000EB820242F82D
:101E5000041C2179012928D02B20A178C1EBC101D4
:101E6000294401F8050CA178E079C1EBC1012944AE
:101E7000303001F8040CA178207AC1EBC10129446B
:101E8000303001F8030CA178607AC1EBC10129441C
:101E9000303001F8020CA1782C20C1EBC10129449B
:101EA00001F8010CBDEC048B70BDA17800EB810042
:101EB00090ED000AB1EE400A00ED010A2D20CCE7BA
:101EC000140100207B14AE47E17A843F9A999999D6
:101ED0009999B93F10B5012203210448FEF705FF87
:101EE000BDE810400A20FEF767BD00000010024068
:101EF0000A46014620230148FFF792BDEC0200206C
:101F000010B501220549064800F0CAF8BDE81040A6
:101F100000224FF400510348FEF7E7BE0E000020F8
:101F2000000003080004024010B5012205490648DC
:101F300000F0B6F80122BDE8104051030348FEF757
:101F4000D4BE00001200002000000308000402407C
:101F500010B501220549064800F0A2F8BDE810407E
:101F600000224FF480510348FEF7BFBE0E00002050
:101F7000000004080004024010B50122054906488B
:101F800000F08EF80122BDE8104011030348FEF76F
:101F9000ACBE000012000020000004080004024053
:101FA00010B501220E490F4800F070F80C4C207853
:101FB00043280DD0FFF7B8FF012209490A4800F075
:101FC00065F82078432806D0BDE81040FFF7D4BF5D
:101FD000FFF796FFF0E7BDE81040FFF7B9BF00003C
:101FE0001600002000000308000004081C49884275
:101FF00001D2002070471B49884201D2012070475E
:102000001949884201D2022070471849884201D2FA
:10201000032070471649884201D2042070471549B1
:10202000884201D2052070471349884201D2062018
:1020300070471249884201D20720704710498842F0
:1020400001D2082070470F49884201D20920704709
:102050000D49884201D20A2070470B2070470000CA
:10206000004000080080000800C0000800000108CF
:10207000000002080000040800000608000008082C
:1020800000000A0800000C0800000E0810B500232C
:1020900003E010C841F823405B1C9342F9D310BD04
:1020A0002DE9F04F87B04FF0000817460E46044662
:1020B000CDF81480B0F1006F38D3A00736D1FEF709
:1020C00021FD1C48254604EB87074CF25039844219
:1020D00015D24FF0010A4FF0020BBD420FD2286813
:1020E000401C11D02846CDF80080FFF77FFF02AAE0
:1020F00005A982E8010C6846FEF770FC28B1484645
:10210000FEF7A2FB70B10FE02D1D4846FEF79CFBC9
:10211000E3E70023214602203268FEF7B5FC18B938
:10212000241D361DBC42F4D3FEF7A4FC07B0BDE865
:10213000F08F00000000FF1F704700001CB507A1D2
:10214000D1E90001CDE900010621684600F0B8F8A8
:102150001A21044800F0B4F81CBD000030303030C3
:10216000352C0000400000203EB51AA10024D1E922
:102170000001CDE90101012218491948FFF786FF46
:1021800020211848FEF7ACFD1449491EF8B1532030
:10219000087015A000680090104800788DF80000C5
:1021A00008788DF80100062101A800F089F80321C4
:1021B000684600F085F80D4DC4EBC40028440721A3
:1021C00000F07EF8641CE4B2272CF5D93EBD552002
:1021D000DEE7000030303030352C000029000020D0
:1021E000000003080004024000002C00140100203D
:1021F00070B5234C0025217851B101290CD002295A
:102200000FD0032911D0042913D0052917D012E0CB
:10221000302810D1012002E030280CD1022020709B
:1022200070BD302807D10320F9E7302803D10420FE
:10223000F5E7352801D0257070BD0520EFE7257042
:1022400060700028F8D0413806280AD2DFE800F094
:1022500003060B0E1114FFF767FE01E0FFF750FEB7
:102260006570657070BDFFF769FFF9E7FFF77CFFE8
:10227000F6E7FFF781FEF3E7FFF76AFEF0E70000FD
:102280001A00002038B50B4900200B4C4870012281
:1022900020212046FEF729FD012210212046FEF7CD
:1022A00024FD0A20FEF788FB012269460348FFF758
:1022B0005FFB38BD1A000020001002402C030020F4
:1022C0000A46014620230148FFF7AABB2C03002041
:1022D0003EB501242046FFF74BFDFFF759FDFF23D4
:1022E0000C2269460848FFF7E7FA18B92146684604
:1022F000FFF764FD9620FEF75FFBFFF751FD641CBE
:10230000E4B2282CE6D93EBDEC020020FEF7F8BC72
:1023100030B593B030216846FDF78CFF14210CA82E
:10232000FDF788FF19480025016841F080510160E0
:10233000006800F0805011901548016841F4804118
:1023400001600068022400F4804011900120039095
:1023500010200490009406940820CDE90750A8208E
:10236000CDE9090404200B906846FEF74BFE0CA94A
:102370000F2081E831004FF4A0500F90E002109040
:1023800005210CA8FEF756FD13B030BD40380240C1
:10239000007000401048016841F4700101600F486E
:1023A000016841F0010101600C4A0021083211600E
:1023B00002680B4B1A400260031D0A4A1A60026849
:1023C00022F48022026005480C3001600249580660
:1023D000803908607047000088ED00E00038024056
:1023E000FFFFF6FE103000240148FFF71CB8000084
:1023F0002C020020F0B50268254C264D264E274FB2
:10240000274B4FF0804CA04209D0604507D0A8422E
:1024100005D0B04203D0B84201D0984204D122F096
:10242000700E4A6842EA0E02A0421BD0604519D0E5
:10243000A84217D0B04215D0B84213D0984211D05C
:10244000184DA8420ED0184DA8420BD0174DA842E7
:1024500008D0174DA84205D0164DA84202D0164DFF
:10246000A84203D122F44075CA682A434D6922F07C
:1024700080022A4302608A68C2620A688262A042BD
:1024800001D0984201D10969016301214161F0BD88
:10249000000001400004004000080040000C004023
:1024A0000004014000400140004401400048014058
:1024B00000180040001C00400020004030B50B48D0
:1024C00043F69925002341680124491C4160826834
:1024D000521C8260AA4201D3447083604EF661228E
:1024E000914201D30470436030BD00001C00002005
:1024F00070B5104C0025607850B10F48FEF77DFF95
:10250000FFF7E6FEFFF730FE65700B48FEF764FF4D
:10251000207800280CD00848FEF76FFFFEF706FA77
:10252000FFF70CFE2570BDE870400348FEF754BF6E
:1025300070BD00001C0000202C0200200348002178
:10254000017041700248FEF747BF00001C000020E8
:102550002C0200200148FFF727B80000EC02002001
:1025600010B5806B0021C185C184FFF71CF810BD38
:102570000168CA6822F49072CA6001684A6922F050
:1025800001024A61202180F83A10704710B590F896
:102590003A10222901D0022010BD8168B1F5805F78
:1025A00011D00169002901681FD0496801F07F033B
:1025B000816A4A1C82620B70C18D491E0904090C94
:1025C000C18518D02BE00269816A002A026852682E
:1025D00005D0D2B20A80816A491C8162ECE7C2F35D
:1025E00008020A80816A891CF7E74A68816A4B1CE5
:1025F00083620A70E0E70168CA6822F02002CA60BC
:102600000168CA6822F48072CA6001684A6922F0CF
:1026100001024A61202180F83A10FFF7D3F9002027
:1026200010BD00002DE9F041044600680169E26830
:1026300021F44051114301612169A068E269084316
:102640006169114322680843D16849F20C639943D8
:102650000143D16020684169A26921F440711143AE
:102660004161E2696425B2F5004F974897492268B5
:102670004FF032083FD08A4201D082427CD1FEF72F
:1026800081FC00EBC00101EB001061688900B0FB28
:10269000F1F6FEF777FC00EBC00101EB001061687A
:1026A0008900B0FBF1F0B0FBF5F06FF01801484382
:1026B00006EB800108EB0110B0FBF5F000F0F0062E
:1026C000FEF760FC00EBC00101EB001061688900BF
:1026D000B0FBF1F0B0FBF5F006EB0016FEF752FC94
:1026E00000EBC00101EB001061688900B0FBF1F75D
:1026F000FEF748FCD2E08A4201D082423DD1FEF78B
:1027000041FC00EBC00101EB001061684900B0FB27
:10271000F1F0B0FBF5F00601FEF734FC00EBC00170
:1027200001EB001061684900B0FBF1F7FEF72AFCED
:1027300000EBC00101EB001061684900B0FBF1F053
:10274000B0FBF5F06FF01801484307EB800108EB90
:10275000C100B0FBF5F000F0F80006EB4006FEF714
:1027600011FC00EBC00101EB001061684900B0FBF7
:10277000F1F7FEF707FC3CE055E0FEF7F3FB00EB5A
:10278000C00101EB001061684900B0FBF1F0B0FB43
:10279000F5F00601FEF7E6FB00EBC00101EB0010CF
:1027A00061684900B0FBF1F7FEF7DCFB00EBC0010C
:1027B00001EB001061684900B0FBF1F0B0FBF5F0EF
:1027C0006FF01801484307EB800108EBC100B0FB34
:1027D000F5F000F0F80006EB4006FEF7C3FB00EB57
:1027E000C00101EB001061684900B0FBF1F7FEF792
:1027F000B9FB00EBC00101EB001061684900B0FBC0
:10280000F1F0B0FBF5F06FF01801484307EB8001E1
:1028100008EBC100B0FBF5F000F007002168304480
:102820008860BDE8F081FEF79DFB00EBC00101EB85
:10283000001061688900B0FBF1F6FEF793FB00EB36
:10284000C00101EB001061688900B0FBF1F0B0FB42
:10285000F5F06FF01801484306EB800108EB01101A
:10286000B0FBF5F000F0F006FEF77CFB00EBC001DA
:1028700001EB001061688900B0FBF1F0B0FBF5F0EE
:1028800006EB0016FEF76EFB00EBC00101EB00103B
:1028900061688900B0FBF1F7FEF764FB00EBC00153
:1028A00001EB001061688900B0FBF1F0B0FBF5F0BE
:1028B0006FF01801484307EB800108EB0110B0FBF3
:1028C000F5F000F00F00A9E70014014000100140EE
:1028D00090F83910212901D0022070478168B1F5A4
:1028E000805F016A0BD04A1C02620268097851605D
:1028F000C18C491E0904090CC1840ED017E0098857
:102900000268C1F30801516001690029016A02D01F
:10291000491C0162ECE7891CFBE70168CA6822F0E8
:102920008002CA600068C16841F04001C1600020B7
:1029300070472DE9F041984617460E460446069D1D
:102940001DE0681C1BD02DB1FEF7D4F9A0EB0800E8
:10295000A84214D92068C16821F4D071C1602068F0
:10296000416921F001014161202084F8390084F897
:102970003A00002084F838000320BDE8F081206888
:10298000006836EA000004D00020B842D9D0002008
:10299000F3E70120F9E700000148FEF705BE00005B
:1029A0002C0300200148FEF7FFBD00006C0300204F
:1029B000FEE70907090E002804DB00F1E02080F89B
:1029C0000014704700F00F0000F1E02080F8141DA3
:1029D000704702E008C8121F08C1002AFAD17047E8
:1029E0007047002001E001C1121F002AFBD170478F
:1029F000FEF78EF9FFF78CFCFFF772F8FFF7ECF8A3
:102A0000FFF704F9FFF71CF9FFF752F9FFF76CF92C
:102A1000FFF732F9FFF7C4FAFDF794FFFFF75AFA10
:102A2000FFF730FCFFF77CF9FFF788FDFFF760FD4B
:102A3000FCE700000000000000000102030406079C
:102A40000809000000000102030400006C2A0008CD
:102A50000000002040000000D2290008AC2A000835
:102A60004000002090070000E2290008000000005C
:102A700000000000000000000000430000004F00C4
:102A80000000000000000000000000000000000046
:102A90000000000000000000000000000024F4001E
:0C2AA00001000000100000000000000019
:040000050800018965
:00000001FF
